:100000000C942A000C9447000C9447000C94470071
:100010000C9447000C9447000C9447000C94470044
:100020000C9447000C9447000C9447000C94470034
:100030000C9447000C9447000C9447000C94470024
:100040000C9447000C9447000C9447000C94470014
:100050000C94470011241FBECFE5D8E0DEBFCDBF12
:1000600012E0A0E6B0E0E0E6FCE302C005900D92ED
:10007000A033B107D9F712E0A0E3B2E001C01D92AE
:10008000AF33B107E1F70E94DA1D0C942E1E0C94D9
:100090000000EF92FF920F931F937B018C0120E0F1
:1000A00030E040E05FE40E94490388238CF0C801FF
:1000B000B70120E030E040E05FE40E94C1010E940F
:1000C00007049B01AC01205030404040504806C01E
:1000D000C801B7010E9407049B01AC01B901CA0124
:1000E0001F910F91FF90EF900895A0E0B0E0EBE733
:1000F000F0E00C94F71DDC012B01FA019C91923089
:1001000008F439C1EB018881823008F433C194309E
:1001100069F4843009F02FC111969C91119789815F
:10012000981709F428C1A6E1B1E025C1843009F48B
:1001300021C18230A9F4923009F01DC19A01AD01AC
:1001400088E0EA010990AE01E90109929E0181501F
:10015000C1F7E201898111969C918923818308C1AD
:10016000923009F407C112962D903C901397EB0141
:100170008A819B811496AD90BD90CD90DC901797AD
:10018000EC80FD800E811F819101281B390BB90184
:1001900037FF04C066277727621B730B6032710537
:1001A0000CF061C0121613066CF537014801062EDB
:1001B00004C096948794779467940A94D2F721E0C8
:1001C00030E040E050E004C0220F331F441F551FB1
:1001D0006A95D2F721503040404050402E213F21B7
:1001E00040235123211531054105510521F021E01E
:1001F00030E040E050E079018A01E628F72808293C
:1002000019293CC0232BD1F1260E371E350146019A
:10021000062E04C096948794779467940A94D2F734
:1002200021E030E040E050E004C0220F331F441FC3
:10023000551F6A95D2F721503040404050402A2146
:100240003B214C215D21211531054105510521F04E
:1002500021E030E040E050E059016A01A628B728CB
:10026000C828D9280BC0821593052CF01C01AA249C
:10027000BB24650103C0EE24FF24870111969C91E5
:10028000D20111968C91981709F445C0992339F041
:10029000A80197012A193B094C095D0906C0A6016E
:1002A00095012E193F09400B510B57FD08C01182D3
:1002B0003382228224833583468357831DC081E0A5
:1002C00081833382228288279927DC01821B930B4A
:1002D000A40BB50B84839583A683B7830DC0220F2F
:1002E000331F441F551F24833583468357838281E0
:1002F000938101979383828324813581468157813D
:10030000DA01C9010197A109B1098F5F9F4FAF4F72
:10031000BF4328F30BC0918333822282EA0CFB1C7B
:100320000C1D1D1DE482F5820683178383E0808304
:10033000248135814681578157FF1AC0C901AA27F8
:1003400097FDA095BA2F81709070A070B0705695EF
:10035000479537952795822B932BA42BB52B848318
:100360009583A683B7838281938101969383828349
:10037000DF0101C0D201CD01CDB7DEB7E2E10C94BF
:10038000131EA0E2B0E0E7ECF1E00C94031E6983D9
:100390007A838B839C832D833E834F835887E9E048
:1003A000EE2EF12CEC0EFD1ECE010196B7010E943F
:1003B000F8058E010F5E1F4FCE010596B8010E9411
:1003C000F8058A8991E089278A8BC701B801AE01B7
:1003D000475E5F4F0E9475000E942305A096E6E0ED
:1003E0000C941F1EA0E2B0E0E8EFF1E00C94031EB5
:1003F00069837A838B839C832D833E834F835887C5
:10040000F9E0EF2EF12CEC0EFD1ECE010196B701A6
:100410000E94F8058E010F5E1F4FCE010596B801B0
:100420000E94F805C701B801AE01475E5F4F0E9408
:1004300075000E942305A096E6E00C941F1EA0E222
:10044000B0E0E5E2F2E00C94F71D69837A838B83D8
:100450009C832D833E834F835887CE010196BE0136
:10046000675F7F4F0E94F805CE010596BE016F5E63
:100470007F4F0E94F8059985923088F089898230F3
:10048000C8F0943019F4823051F404C0843029F457
:10049000923081F486E191E0C6C0923049F420E0C8
:1004A0009A858A89981321E02A87CE010996BBC0D4
:1004B000823049F420E09A858A89981321E02A8BBA
:1004C000CE014196B0C02D843E844F8458886D88FB
:1004D0007E888F88988CEE24FF248701AA24BB2471
:1004E000650140E050E060E070E0E0E0F0E0C10174
:1004F00081709070892BE9F0E60CF71C081D191D1E
:100500009A01AB012A0D3B1D4C1D5D1D80E090E062
:10051000A0E0B0E0E614F7040805190520F481E036
:1005200090E0A0E0B0E0BA01A901480F591F6A1F8E
:100530007B1FAA0CBB1CCC1CDD1C97FE08C081E0F5
:1005400090E0A0E0B0E0A82AB92ACA2ADB2A3196B6
:10055000E032F10549F0660C771C881C991C569412
:10056000479437942794C3CFFA85EA892B893C892D
:100570008B859C85280F391F2E5F3F4F17C0CA01FE
:1005800081709070892B61F016950795F794E79428
:1005900080E090E0A0E0B0E8E82AF92A0A2B1B2BC3
:1005A00076956795579547952F5F3F4F77FDE7CF36
:1005B0000CC0440F551F661F771F17FD4160EE0CDE
:1005C000FF1C001F111F21503040403090E05907A0
:1005D00090E0690790E4790760F32B8F3C8FDB0193
:1005E000CA018F779070A070B07080349105A1051A
:1005F000B10561F447FD0AC0E114F10401051105DC
:1006000029F0405C5F4F6F4F7F4F40781A8EFE1786
:1006100011F081E08A8F4D8F5E8F6F8F78A383E01A
:10062000898FCE0149960E942305A096E2E10C94A1
:10063000131EA8E1B0E0EFE1F3E00C94031E698320
:100640007A838B839C832D833E834F83588789E0F5
:10065000E82EF12CEC0EFD1ECE010196B7010E9492
:10066000F8058E010F5E1F4FCE010596B8010E945E
:10067000F8058985823040F08989823028F0C701E9
:10068000B8010E94700601C08FEF6896E6E00C94F6
:100690001F1EA8E1B0E0EFE4F3E00C94031E6983B1
:1006A0007A838B839C832D833E834F83588789E095
:1006B000E82EF12CEC0EFD1ECE010196B7010E9432
:1006C000F8058E010F5E1F4FCE010596B8010E94FE
:1006D000F8058985823040F08989823028F0C70189
:1006E000B8010E94700601C08FEF6896E6E00C9496
:1006F0001F1EA8E1B0E0EFE7F3E00C94031E69834E
:100700007A838B839C832D833E834F83588789E034
:10071000E82EF12CEC0EFD1ECE010196B7010E94D1
:10072000F8058E010F5E1F4FCE010596B8010E949D
:10073000F8058985823040F08989823028F0C70128
:10074000B8010E94700601C081E06896E6E00C9452
:100750001F1EA8E0B0E0EFEAF3E00C94001E9B013E
:10076000AC0183E08983DA01C9018827B7FD83954D
:100770009927AA27BB27B82E211531054105510518
:1007800019F482E089833AC08823A9F0203080E000
:10079000380780E0480780E8580729F460E070E0F7
:1007A00080E09FEC30C0EE24FF248701E21AF30AB8
:1007B000040B150B02C079018A018EE1C82ED12CE1
:1007C000DC82CB82ED82FE820F831887C801B701DD
:1007D0000E94D40401971816190684F4082E04C048
:1007E000EE0CFF1C001F111F0A94D2F7ED82FE824F
:1007F0000F831887C81AD90ADC82CB82BA82CE014D
:1008000001960E9423052896E9E00C941C1EACE09A
:10081000B0E0EDE0F4E00C94071E69837A838B83EB
:100820009C83CE010196BE016B5F7F4F0E94F8054D
:100830008D81823061F1823050F1843021F48E81DB
:10084000882351F12EC02F81388537FD20C06E815D
:100850002F3131051CF06623F9F023C08EE190E0C2
:10086000821B930B29853A854B855C8504C0569580
:100870004795379527958A95D2F76623B1F050951D
:100880004095309521953F4F4F4F5F4F0EC020E070
:1008900030E040E050E009C02FEF3FEF4FEF5FE75F
:1008A00004C020E030E040E050E8B901CA012C96D5
:1008B000E2E00C94231EA8E0B0E0E1E6F4E00C9442
:1008C000FF1D7B018C01611571058105910519F4EE
:1008D00082E0898360C083E089838EE1C82ED12CB9
:1008E000DC82CB82ED82FE820F831887C801B701BC
:1008F0000E94D404FC013197F7FF3BC02227332725
:100900002E1B3F0B57016801022E04C0D694C794DA
:10091000B794A7940A94D2F740E050E060E070E00A
:1009200081E090E0A0E0B0E004C0880F991FAA1F0A
:10093000BB1F2A95D2F70197A109B1098E219F21EA
:10094000A023B1230097A105B10521F041E050E0BB
:1009500060E070E04A295B296C297D294D835E8324
:100960006F8378878EE190E08E1B9F0B9C838B8337
:1009700012C0309781F00E2E04C0EE0CFF1C001F39
:10098000111F0A94D2F7ED82FE820F831887CE1AC8
:10099000DF0ADC82CB821A82CE0101960E942305F7
:1009A0002896EAE00C941B1EEF92FF920F931F9380
:1009B0007B018C0180E0E81680E0F80681E0080702
:1009C00080E0180788F48FEFE816F104010511059F
:1009D00031F028F088E090E0A0E0B0E017C080E0BF
:1009E00090E0A0E0B0E012C080E0E81680E0F806F9
:1009F00080E0080781E0180728F088E190E0A0E097
:100A0000B0E004C080E190E0A0E0B0E020E230E09F
:100A100040E050E0281B390B4A0B5B0B04C01695D5
:100A20000795F794E7948A95D2F7F701E25EFE4FB7
:100A30008081281B310941095109C9011F910F917A
:100A4000FF90EF900895DF92EF92FF920F931F9324
:100A5000FC01E480F58006811781D180808182309D
:100A600048F480E090E0A0E1B0E0E82AF92A0A2BFF
:100A70001B2BA5C0843009F49FC0823021F4EE24E2
:100A8000FF24870105C0E114F1040105110519F4E3
:100A9000E0E0F0E096C0628173819FEF62387907F1
:100AA0000CF05BC022E83FEF261B370B2A313105E3
:100AB0002CF020E030E040E050E02AC0B801A7016F
:100AC000022E04C076956795579547950A94D2F7FC
:100AD00081E090E0A0E0B0E004C0880F991FAA1F59
:100AE000BB1F2A95D2F70197A109B1098E219F2139
:100AF000A023B1230097A105B10521F081E090E08A
:100B0000A0E0B0E09A01AB01282B392B4A2B5B2BDC
:100B1000DA01C9018F779070A070B07080349105B0
:100B2000A105B10539F427FF09C0205C3F4F4F4FA5
:100B30005F4F04C0215C3F4F4F4F5F4FE0E0F0E05C
:100B40002030A0E03A07A0E04A07A0E45A0710F0DE
:100B5000E1E0F0E079018A0127C06038710564F5B1
:100B6000FB01E158FF4FD801C7018F779070A0704B
:100B7000B07080349105A105B10539F4E7FE0DC0D0
:100B800080E490E0A0E0B0E004C08FE390E0A0E05B
:100B9000B0E0E80EF91E0A1F1B1F17FF05C01695CF
:100BA0000795F794E794319687E016950795F794A3
:100BB000E7948A95D1F705C0EE24FF248701EFEF73
:100BC000F0E06E2F679566276795902F9F77D794F3
:100BD000DD24D7948E2F8695492F462B582F5D29DB
:100BE000B701CA011F910F91FF90EF90DF90089518
:100BF000FC01DB01408151812281622F6F7770E01F
:100C0000221F2227221F9381892F880F822B282FB2
:100C100030E0991F9927991F11969C9311972115E0
:100C20003105A9F5411551056105710511F482E001
:100C300037C082E89FEF13969C938E9312979A0188
:100C4000AB0167E0220F331F441F551F6A95D1F790
:100C500083E08C930DC0220F331F441F551F129643
:100C60008D919C911397019713969C938E93129755
:100C7000203080E0380780E0480780E4580758F3C8
:100C800014962D933D934D935C93179708952F3FA2
:100C9000310579F4411551056105710519F484E0B8
:100CA0008C93089564FF03C081E08C9312C01C9262
:100CB00010C02F57304013963C932E93129783E029
:100CC0008C9387E0440F551F661F771F8A95D1F7D5
:100CD000706414964D935D936D937C93179708956C
:100CE0001F93DC01FB019C91923008F447C0808186
:100CF000823008F443C0943051F411961C91843032
:100D000099F58181682F70E0611B71093FC08430C3
:100D100021F0923031F48230B9F18181882389F158
:100D20002DC011961C9111978230F1F08181181716
:100D3000D9F412962D913C91139782819381821759
:100D4000930794F028173907BCF014968D919D9164
:100D50000D90BC91A02D24813581468157812817A3
:100D600039074A075B0718F4112341F00AC08217BC
:100D70009307A407B50740F4112319F061E070E070
:100D800005C06FEF7FEF02C060E070E0CB011F9104
:100D90000895DF93CF93CDB7DEB728970FB6F894B9
:100DA000DEBF0FBECDBF89836A838A81813019F48B
:100DB0008FEF8A8304C08A81882309F41A8289818B
:100DC000282F30E038872F838F81988581309105D7
:100DD000E9F02F813885223031052CF48F819885F8
:100DE000009761F02AC02F81388522303105B1F09B
:100DF0008F81988583309105C9F01FC0EAE3F0E048
:100E00009081EAE3F0E08A81808317C0E7E3F0E0B5
:100E10002081E7E3F0E08A8180830FC0E4E3F0E023
:100E20003081E4E3F0E08A81808307C0E1E3F0E011
:100E30008081E1E3F0E08A81808328960FB6F89400
:100E4000DEBF0FBECDBFCF91DF910895DF93CF936B
:100E5000CDB7DEB728970FB6F894DEBF0FBECDBF73
:100E600089836A838981282F30E038872F838F8197
:100E7000988581309105E9F02F8138852230310540
:100E80002CF48F819885009761F02AC02F813885D6
:100E900022303105B1F08F81988583309105C9F0FA
:100EA0001FC0EBE3F0E09081EBE3F0E08A81808308
:100EB00017C0E8E3F0E02081E8E3F0E08A81808376
:100EC0000FC0E5E3F0E03081E5E3F0E08A81808364
:100ED00007C0E2E3F0E08081E2E3F0E08A81808312
:100EE00028960FB6F894DEBF0FBECDBFCF91DF912D
:100EF0000895DF93CF9300D000D0CDB7DEB78A83BB
:100F00008A81282F30E03C832B838B819C81813028
:100F10009105D1F02B813C81223031052CF48B815D
:100F20009C81009761F01FC02B813C8122303105EC
:100F300081F08B819C818330910581F014C0E9E3BD
:100F4000F0E08081898313C0E6E3F0E0808189834B
:100F50000EC0E3E3F0E08081898309C0E0E3F0E0C4
:100F60008081898304C0E9E3F0E0808189838981FD
:100F70000F900F900F900F90CF91DF910895DF9316
:100F8000CF9300D000D00F92CDB7DEB789836A83AC
:100F90004B838981282F30E03D832C836C817D81B8
:100FA00061307105D1F18C819D818230910534F4DD
:100FB0002C813D812115310571F094C06C817D81BA
:100FC0006230710509F44BC08C819D81833091059D
:100FD00009F467C087C0AAE3B0E0EAE3F0E08081EB
:100FE000482F8A81282F30E081E090E002C0880FEE
:100FF000991F2A95E2F7809548238B81282F30E0AE
:101000008A81882F90E0B90102C0660F771F8A9508
:10101000E2F7CB01842B8C9365C0A7E3B0E0E7E354
:10102000F0E08081482F8A81282F30E081E090E035
:1010300002C0880F991F2A95E2F7809548238B817B
:10104000282F30E08A81882F90E0B90102C0660F16
:10105000771F8A95E2F7CB01842B8C9343C0A4E3DE
:10106000B0E0E4E3F0E08081482F8A81282F30E06F
:1010700081E090E002C0880F991F2A95E2F78095E1
:1010800048238B81282F30E08A81882F90E0B90196
:1010900002C0660F771F8A95E2F7CB01842B8C93F1
:1010A00021C0A1E3B0E0E1E3F0E08081482F8A8134
:1010B000282F30E081E090E002C0880F991F2A9528
:1010C000E2F7809548238B81282F30E08A81882F92
:1010D00090E0B90102C0660F771F8A95E2F7CB0155
:1010E000842B8C930F900F900F900F900F90CF91B7
:1010F000DF910895DF93CF9300D000D00F92CDB74A
:10110000DEB789836A834B838981282F30E03D8352
:101110002C836C817D8161307105D1F18C819D8141
:101120008230910534F42C813D812115310571F017
:1011300094C06C817D816230710509F44BC08C8153
:101140009D818330910509F467C087C0ABE3B0E0AF
:10115000EBE3F0E08081482F8A81282F30E081E0A6
:1011600090E002C0880F991F2A95E2F780954823E6
:101170008B81282F30E08A81882F90E0B90102C04E
:10118000660F771F8A95E2F7CB01842B8C9365C09D
:10119000A8E3B0E0E8E3F0E08081482F8A81282FBF
:1011A00030E081E090E002C0880F991F2A95E2F7B5
:1011B000809548238B81282F30E08A81882F90E00A
:1011C000B90102C0660F771F8A95E2F7CB01842B25
:1011D0008C9343C0A5E3B0E0E5E3F0E08081482FC5
:1011E0008A81282F30E081E090E002C0880F991FAB
:1011F0002A95E2F7809548238B81282F30E08A8159
:10120000882F90E0B90102C0660F771F8A95E2F738
:10121000CB01842B8C9321C0A2E3B0E0E2E3F0E0A9
:101220008081482F8A81282F30E081E090E002C041
:10123000880F991F2A95E2F7809548238B81282FE4
:1012400030E08A81882F90E0B90102C0660F771FD5
:101250008A95E2F7CB01842B8C930F900F900F901F
:101260000F900F90CF91DF910895DF93CF9300D02F
:1012700000D00F92CDB7DEB78A836B838A81282F87
:1012800030E03D832C834C815D814130510541F13B
:101290008C819D818230910534F42C813D81211512
:1012A000310561F053C04C815D814230510551F1EF
:1012B0008C819D8183309105B9F148C0E9E3F0E06C
:1012C0008081282F30E08B81882F90E0A90102C017
:1012D000559547958A95E2F7CA018170898347C081
:1012E000E6E3F0E08081282F30E08B81882F90E0CA
:1012F000A90102C0559547958A95E2F7CA01817008
:10130000898335C0E3E3F0E08081282F30E08B81D2
:10131000882F90E0A90102C0559547958A95E2F77C
:10132000CA018170898323C0E0E3F0E08081282F27
:1013300030E08B81882F90E0A90102C05595479538
:101340008A95E2F7CA018170898311C0E9E3F0E070
:101350008081282F30E08B81882F90E0A90102C086
:10136000559547958A95E2F7CA01817089838981ED
:101370000F900F900F900F900F90CF91DF910895E5
:10138000DF93CF9300D000D0CDB7DEB789836A83D7
:101390008981282F30E03C832B838B819C81813095
:1013A000910549F12B813C81223031052CF48B8150
:1013B0009C81009761F05AC02B813C81223031051D
:1013C00071F18B819C8183309105E9F14FC0ABE3D2
:1013D000B0E0EBE3F0E08081482F8A81282F30E0F5
:1013E00081E090E0022E02C0880F991F0A94E2F774
:1013F00084278C933BC0A8E3B0E0E8E3F0E0808171
:10140000482F8A81282F30E081E090E0022E02C030
:10141000880F991F0A94E2F784278C9327C0A5E3CD
:10142000B0E0E5E3F0E08081482F8A81282F30E0AA
:1014300081E090E0022E02C0880F991F0A94E2F723
:1014400084278C9313C0A2E3B0E0E2E3F0E0808154
:10145000482F8A81282F30E081E090E0022E02C0E0
:10146000880F991F0A94E2F784278C930F900F90AE
:101470000F900F90CF91DF910895DF93CF93CDB769
:10148000DEB783E060E041E00E94BF0783E061E0F7
:1014900041E00E94BF0783E062E041E00E94BF0795
:1014A00083E063E041E00E94BF07CF91DF910895A0
:1014B000DF93CF9300D0CDB7DEB79A83898389813C
:1014C0009A8120E330E0B9010E94E31DCB018093B3
:1014D0001E020F900F90CF91DF910895DF93CF936D
:1014E00000D00F92CDB7DEB789838981282F30E0F5
:1014F0003B832A838A819B81009731F02A813B813B
:101500002130310521F006C01092300203C081E085
:10151000809330020F900F900F90CF91DF9108953C
:10152000DF93CF9300D0CDB7DEB786E0898380917B
:101530003002882361F41A8205C00E941E0B8A8142
:101540008F5F8A839A8189819817B8F30FC0809141
:101550003002813059F41A8205C00E94690D8A81D7
:101560008F5F8A839A8189819817B8F30F900F90C3
:10157000CF91DF910895DF93CF9300D0CDB7DEB741
:101580008CE0898380913002882361F41A8205C03F
:101590000E941E0B8A818F5F8A839A8189819817A6
:1015A000B8F30FC080913002813059F41A8205C01F
:1015B0000E94690D8A818F5F8A839A818981981739
:1015C000B8F30F900F90CF91DF910895DF93CF93F1
:1015D000CDB7DEB7CF91DF910895DF93CF93CDB72D
:1015E000DEB7CF91DF910895DF93CF9300D0CDB7D1
:1015F000DEB78A8380913002882361F4198205C0A6
:101600000E94E60A89818F5F898399818A81981770
:10161000B8F30FC080913002813059F4198205C0AF
:101620000E94ED0A89818F5F898399818A81981749
:10163000B8F30F900F90CF91DF910895DF93CF9380
:10164000CDB7DEB7E8970FB6F894DEBF0FBECDBFBB
:1016500083E060E041E00E947A0883E061E040E0DE
:101660000E947A0883E062E040E00E947A0883E00A
:1016700063E040E00E947A0880911E02882F90E08B
:10168000A0E0B0E0BC01CD010E945B04DC01CB0115
:101690008DAB9EABAFABB8AF6DA97EA98FA998AD4E
:1016A00020E030E04AEF54E40E941F02DC01CB014D
:1016B00089AB9AABABABBCAB69A97AA98BA99CA946
:1016C00020E030E040E85FE30E94790388232CF4B7
:1016D00081E090E098AB8FA73FC069A97AA98BA958
:1016E0009CA920E03FEF4FE757E40E94190318162A
:1016F0004CF56DA97EA98FA998AD20E030E040E2BD
:1017000051E40E941F02DC01CB01BC01CD010E940B
:101710004900DC01CB0198AB8FA70FC088EC90E0AB
:101720009EA78DA78DA59EA50197F1F79EA78DA7D2
:101730008FA598A9019798AB8FA78FA598A9009717
:1017400069F714C069A97AA98BA99CA90E944900CC
:10175000DC01CB0198AB8FA78FA598A99CA78BA77D
:101760008BA59CA50197F1F79CA78BA783E060E070
:1017700040E00E947A0883E061E041E00E947A083C
:1017800083E062E040E00E947A0883E063E040E0AA
:101790000E947A0880911E02882F90E0A0E0B0E0BD
:1017A000BC01CD010E945B04DC01CB018FA398A793
:1017B000A9A7BAA76FA178A589A59AA520E030E0CE
:1017C0004AEF54E40E941F02DC01CB018BA39CA3CF
:1017D000ADA3BEA36BA17CA18DA19EA120E030E0B2
:1017E00040E85FE30E94790388232CF481E090E0D5
:1017F0009AA389A33FC06BA17CA18DA19EA120E0EB
:101800003FEF4FE757E40E94190318164CF56FA1FC
:1018100078A589A59AA520E030E040E251E40E9435
:101820001F02DC01CB01BC01CD010E944900DC019B
:10183000CB019AA389A30FC088EC90E098A38F8F67
:101840008F8D98A10197F1F798A38F8F89A19AA105
:1018500001979AA389A389A19AA1009769F714C057
:101860006BA17CA18DA19EA10E944900DC01CB014E
:101870009AA389A389A19AA19E8F8D8F8D8D9E8D0C
:101880000197F1F79E8F8D8F83E060E040E00E942A
:101890007A0883E061E040E00E947A0883E062E039
:1018A00041E00E947A0883E063E040E00E947A0809
:1018B00080911E02882F90E0A0E0B0E0BC01CD0135
:1018C0000E945B04DC01CB01898F9A8FAB8FBC8FA8
:1018D000698D7A8D8B8D9C8D20E030E04AEF54E449
:1018E0000E941F02DC01CB018D8B9E8BAF8BB88FCA
:1018F0006D897E898F89988D20E030E040E85FE334
:101900000E94790388232CF481E090E09C8B8B8BE0
:101910003FC06D897E898F89988D20E03FEF4FE72A
:1019200057E40E94190318164CF5698D7A8D8B8D3A
:101930009C8D20E030E040E251E40E941F02DC0177
:10194000CB01BC01CD010E944900DC01CB019C8B85
:101950008B8B0FC088EC90E09A8B898B89899A8950
:101960000197F1F79A8B898B8B899C8901979C8BC6
:101970008B8B8B899C89009769F714C06D897E8950
:101980008F89988D0E944900DC01CB019C8B8B8B49
:101990008B899C89988B8F878F8598890197F1F720
:1019A000988B8F8783E060E040E00E947A0883E0B4
:1019B00061E040E00E947A0883E062E040E00E943B
:1019C0007A0883E063E041E00E947A0880911E0279
:1019D000882F90E0A0E0B0E0BC01CD010E945B0444
:1019E000DC01CB018B879C87AD87BE876B857C85AF
:1019F0008D859E8520E030E04AEF54E40E941F026E
:101A0000DC01CB018F839887A987BA876F8178859E
:101A100089859A8520E030E040E85FE30E94790301
:101A200088232CF481E090E09E838D833FC06F81FA
:101A3000788589859A8520E03FEF4FE757E40E943B
:101A4000190318164CF56B857C858D859E8520E0E5
:101A500030E040E251E40E941F02DC01CB01BC01F6
:101A6000CD010E944900DC01CB019E838D830FC014
:101A700088EC90E09C838B838B819C810197F1F7AC
:101A80009C838B838D819E8101979E838D838D8125
:101A90009E81009769F714C06F81788589859A8542
:101AA0000E944900DC01CB019E838D838D819E8144
:101AB0009A83898389819A810197F1F79A8389832F
:101AC000E8960FB6F894DEBF0FBECDBFCF91DF9181
:101AD0000895DF93CF93CDB7DEB7E8970FB6F894AC
:101AE000DEBF0FBECDBF83E060E040E00E947A0819
:101AF00083E061E040E00E947A0883E062E040E039
:101B00000E947A0883E063E041E00E947A088091B5
:101B10001E02882F90E0A0E0B0E0BC01CD010E9441
:101B20005B04DC01CB018DAB9EABAFABB8AF6DA955
:101B30007EA98FA998AD20E030E04AEF54E40E94DE
:101B40001F02DC01CB0189AB9AABABABBCAB69A983
:101B50007AA98BA99CA920E030E040E85FE30E94CD
:101B6000790388232CF481E090E098AB8FA73FC0E5
:101B700069A97AA98BA99CA920E03FEF4FE757E418
:101B80000E94190318164CF56DA97EA98FA998AD6E
:101B900020E030E040E251E40E941F02DC01CB0172
:101BA000BC01CD010E944900DC01CB0198AB8FA79D
:101BB0000FC088EC90E09EA78DA78DA59EA50197EC
:101BC000F1F79EA78DA78FA598A9019798AB8FA72E
:101BD0008FA598A9009769F714C069A97AA98BA95C
:101BE0009CA90E944900DC01CB0198AB8FA78FA56F
:101BF00098A99CA78BA78BA59CA50197F1F79CA7FB
:101C00008BA783E060E040E00E947A0883E061E017
:101C100040E00E947A0883E062E041E00E947A0896
:101C200083E063E040E00E947A0880911E02882FE2
:101C300090E0A0E0B0E0BC01CD010E945B04DC01BB
:101C4000CB018FA398A7A9A7BAA76FA178A589A54B
:101C50009AA520E030E04AEF54E40E941F02DC0124
:101C6000CB018BA39CA3ADA3BEA36BA17CA18DA133
:101C70009EA120E030E040E85FE30E9479038823E2
:101C80002CF481E090E09AA389A33FC06BA17CA1D2
:101C90008DA19EA120E03FEF4FE757E40E9419037A
:101CA00018164CF56FA178A589A59AA520E030E01B
:101CB00040E251E40E941F02DC01CB01BC01CD01D6
:101CC0000E944900DC01CB019AA389A30FC088ECD4
:101CD00090E098A38F8F8F8D98A10197F1F798A32B
:101CE0008F8F89A19AA101979AA389A389A19AA10B
:101CF000009769F714C06BA17CA18DA19EA10E94E1
:101D00004900DC01CB019AA389A389A19AA19E8FE6
:101D10008D8F8D8D9E8D0197F1F79E8F8D8F83E036
:101D200060E040E00E947A0883E061E041E00E94C8
:101D30007A0883E062E040E00E947A0883E063E092
:101D400040E00E947A0880911E02882F90E0A0E077
:101D5000B0E0BC01CD010E945B04DC01CB01898FA6
:101D60009A8FAB8FBC8F698D7A8D8B8D9C8D20E087
:101D700030E04AEF54E40E941F02DC01CB018D8B5E
:101D80009E8BAF8BB88F6D897E898F89988D20E06F
:101D900030E040E85FE30E94790388232CF481E07F
:101DA00090E09C8B8B8B3FC06D897E898F89988D4D
:101DB00020E03FEF4FE757E40E94190318164CF557
:101DC000698D7A8D8B8D9C8D20E030E040E251E46E
:101DD0000E941F02DC01CB01BC01CD010E94490021
:101DE000DC01CB019C8B8B8B0FC088EC90E09A8B35
:101DF000898B89899A890197F1F79A8B898B8B89CD
:101E00009C8901979C8B8B8B8B899C89009769F7A8
:101E100014C06D897E898F89988D0E944900DC01EC
:101E2000CB019C8B8B8B8B899C89988B8F878F8523
:101E300098890197F1F7988B8F8783E060E041E004
:101E40000E947A0883E061E040E00E947A0883E023
:101E500062E040E00E947A0883E063E040E00E9494
:101E60007A0880911E02882F90E0A0E0B0E0BC01CB
:101E7000CD010E945B04DC01CB018B879C87AD8781
:101E8000BE876B857C858D859E8520E030E04AEF9E
:101E900054E40E941F02DC01CB018F839887A9873D
:101EA000BA876F81788589859A8520E030E040E89F
:101EB0005FE30E94790388232CF481E090E09E8305
:101EC0008D833FC06F81788589859A8520E03FEFBB
:101ED0004FE757E40E94190318164CF56B857C8573
:101EE0008D859E8520E030E040E251E40E941F0293
:101EF000DC01CB01BC01CD010E944900DC01CB011A
:101F00009E838D830FC088EC90E09C838B838B81B4
:101F10009C810197F1F79C838B838D819E81019732
:101F20009E838D838D819E81009769F714C06F8198
:101F3000788589859A850E944900DC01CB019E83C2
:101F40008D838D819E819A83898389819A8101976E
:101F5000F1F79A838983E8960FB6F894DEBF0FBE37
:101F6000CDBFCF91DF910895DF93CF93CDB7DEB78B
:101F70006D970FB6F894DEBF0FBECDBF8D8F81E099
:101F800064E040E00E947A0881E065E040E00E9461
:101F90007A0880E06D8D0E94260781E066E041E0CE
:101FA0000E947A0880E090E0A0E0B0E4898F9A8FE8
:101FB000AB8FBC8F698D7A8D8B8D9C8D20E030E04E
:101FC0004AEF54E40E941F02DC01CB018D8B9E8BF3
:101FD000AF8BB88F6D897E898F89988D20E030E036
:101FE00040E85FE30E94790388232CF481E090E0CD
:101FF0009C8B8B8B3FC06D897E898F89988D20E06B
:102000003FEF4FE757E40E94190318164CF5698D0E
:102010007A8D8B8D9C8D20E030E040E251E40E946F
:102020001F02DC01CB01BC01CD010E944900DC0193
:10203000CB019C8B8B8B0FC088EC90E09A8B898BAB
:1020400089899A890197F1F79A8B898B8B899C8969
:1020500001979C8B8B8B8B899C89009769F714C0A7
:102060006D897E898F89988D0E944900DC01CB01A2
:102070009C8B8B8B8B899C89988B8F878F8598897C
:102080000197F1F7988B8F8781E066E040E00E942E
:102090007A0880E090E0A0E0B0E48B879C87AD8771
:1020A000BE876B857C858D859E8520E030E04AEF7C
:1020B00054E40E941F02DC01CB018F839887A9871B
:1020C000BA876F81788589859A8520E030E040E87D
:1020D0005FE30E94790388232CF481E090E09E83E3
:1020E0008D833FC06F81788589859A8520E03FEF99
:1020F0004FE757E40E94190318164CF56B857C8551
:102100008D859E8520E030E040E251E40E941F0270
:10211000DC01CB01BC01CD010E944900DC01CB01F7
:102120009E838D830FC088EC90E09C838B838B8192
:102130009C810197F1F79C838B838D819E81019710
:102140009E838D838D819E81009769F714C06F8176
:10215000788589859A850E944900DC01CB019E83A0
:102160008D838D819E819A83898389819A8101974C
:10217000F1F79A8389836D960FB6F894DEBF0FBE90
:10218000CDBFCF91DF910895DF93CF93CDB7DEB769
:10219000E8970FB6F894DEBF0FBECDBF80E090E0A9
:1021A000A8E4B2E48DAB9EABAFABB8AF6DA97EA98E
:1021B0008FA998AD20E030E04AEF54E40E941F025E
:1021C000DC01CB0189AB9AABABABBCAB69A97AA9FB
:1021D0008BA99CA920E030E040E85FE30E947903EE
:1021E00088232CF481E090E098AB8FA73FC069A9C9
:1021F0007AA98BA99CA920E03FEF4FE757E40E9402
:10220000190318164CF56DA97EA98FA998AD20E089
:1022100030E040E251E40E941F02DC01CB01BC012E
:10222000CD010E944900DC01CB0198AB8FA70FC004
:1022300088EC90E09EA78DA78DA59EA50197F1F74C
:102240009EA78DA78FA598A9019798AB8FA78FA55B
:1022500098A9009769F714C069A97AA98BA99CA9C4
:102260000E944900DC01CB0198AB8FA78FA598A9EC
:102270009CA78BA78BA59CA50197F1F79CA78BA783
:1022800080E061E00E94C90681E064E041E00E94D4
:10229000BF0781E066E041E00E94BF0781E065E0A2
:1022A00041E00E94BF0788E30E94B40F80E090E005
:1022B000A0E8BFE38FA398A7A9A7BAA76FA178A5A5
:1022C00089A59AA520E030E04AEF54E40E941F025D
:1022D000DC01CB018BA39CA3ADA3BEA36BA17CA10E
:1022E0008DA19EA120E030E040E85FE30E947903E9
:1022F00088232CF481E090E09AA389A33FC06BA1CE
:102300007CA18DA19EA120E03FEF4FE757E40E9402
:10231000190318164CF56FA178A589A59AA520E098
:1023200030E040E251E40E941F02DC01CB01BC011D
:10233000CD010E944900DC01CB019AA389A30FC003
:1023400088EC90E098A38F8F8F8D98A10197F1F77B
:1023500098A38F8F89A19AA101979AA389A389A194
:102360009AA1009769F714C06BA17CA18DA19EA1D1
:102370000E944900DC01CB019AA389A389A19AA1FB
:102380009E8F8D8F8D8D9E8D0197F1F79E8F8D8FF6
:102390008CE00E94B40F80E090E0A0E8BFE3898F5A
:1023A0009A8FAB8FBC8F698D7A8D8B8D9C8D20E041
:1023B00030E04AEF54E40E941F02DC01CB018D8B18
:1023C0009E8BAF8BB88F6D897E898F89988D20E029
:1023D00030E040E85FE30E94790388232CF481E039
:1023E00090E09C8B8B8B3FC06D897E898F89988D07
:1023F00020E03FEF4FE757E40E94190318164CF511
:10240000698D7A8D8B8D9C8D20E030E040E251E427
:102410000E941F02DC01CB01BC01CD010E944900DA
:10242000DC01CB019C8B8B8B0FC088EC90E09A8BEE
:10243000898B89899A890197F1F79A8B898B8B8986
:102440009C8901979C8B8B8B8B899C89009769F762
:1024500014C06D897E898F89988D0E944900DC01A6
:10246000CB019C8B8B8B8B899C89988B8F878F85DD
:1024700098890197F1F7988B8F8781E00E94B40FBC
:1024800080E090E0A0EAB1E48B879C87AD87BE87AF
:102490006B857C858D859E8520E030E04AEF54E495
:1024A0000E941F02DC01CB018F839887A987BA871E
:1024B0006F81788589859A8520E030E040E85FE388
:1024C0000E94790388232CF481E090E09E838D8321
:1024D0003FC06F81788589859A8520E03FEF4FE77F
:1024E00057E40E94190318164CF56B857C858D8581
:1024F0009E8520E030E040E251E40E941F02DC01B2
:10250000CB01BC01CD010E944900DC01CB019E83BF
:102510008D830FC088EC90E09C838B838B819C81A2
:102520000197F1F79C838B838D819E8101979E8318
:102530008D838D819E81009769F714C06F817885A6
:1025400089859A850E944900DC01CB019E838D8399
:102550008D819E819A83898389819A810197F1F780
:102560009A83898386E00E94B40FE8960FB6F894A8
:10257000DEBF0FBECDBFCF91DF910895DF93CF9324
:10258000CDB7DEB76D970FB6F894DEBF0FBECDBFE7
:102590008D8F81E064E041E00E947A0881E065E08F
:1025A00040E00E947A0880E06D8D0E94260781E05D
:1025B00066E041E00E947A0880E090E0A0E0B0E4AC
:1025C000898F9A8FAB8FBC8F698D7A8D8B8D9C8D07
:1025D00020E030E04AEF54E40E941F02DC01CB010E
:1025E0008D8B9E8BAF8BB88F6D897E898F89988DEF
:1025F00020E030E040E85FE30E94790388232CF478
:1026000081E090E09C8B8B8B3FC06D897E898F89A8
:10261000988D20E03FEF4FE757E40E94190318160A
:102620004CF5698D7A8D8B8D9C8D20E030E040E2F9
:1026300051E40E941F02DC01CB01BC01CD010E94CC
:102640004900DC01CB019C8B8B8B0FC088EC90E0A8
:102650009A8B898B89899A890197F1F79A8B898B53
:102660008B899C8901979C8B8B8B8B899C8900978C
:1026700069F714C06D897E898F89988D0E94490001
:10268000DC01CB019C8B8B8B8B899C89988B8F87F2
:102690008F8598890197F1F7988B8F8781E066E0A5
:1026A00040E00E947A0880E090E0A0E0B0E48B87F0
:1026B0009C87AD87BE876B857C858D859E8520E058
:1026C00030E04AEF54E40E941F02DC01CB018F830B
:1026D0009887A987BA876F81788589859A8520E050
:1026E00030E040E85FE30E94790388232CF481E026
:1026F00090E09E838D833FC06F81788589859A8520
:1027000020E03FEF4FE757E40E94190318164CF5FD
:102710006B857C858D859E8520E030E040E251E42C
:102720000E941F02DC01CB01BC01CD010E944900C7
:10273000DC01CB019E838D830FC088EC90E09C83ED
:102740008B838B819C810197F1F79C838B838D8197
:102750009E8101979E838D838D819E81009769F76D
:1027600014C06F81788589859A850E944900DC01B3
:10277000CB019E838D838D819E819A8389838981FC
:102780009A810197F1F79A8389836D960FB6F89431
:10279000DEBF0FBECDBFCF91DF910895DF93CF9302
:1027A00000D00F92CDB7DEB79B838A8319820EC00B
:1027B0008981282F30E08A819B81FC01E20FF31F81
:1027C00080810E94BE1289818F5F89838981282F31
:1027D00030E08A819B81FC01E20FF31F8081882316
:1027E00039F70F900F900F90CF91DF910895DF93FD
:1027F000CF93CDB7DEB781E00E94B40FCF91DF91C8
:102800000895DF93CF93CDB7DEB780E80E94B40F71
:10281000CF91DF910895DF93CF93CDB7DEB780ECF2
:102820000E94B40FCF91DF910895DF93CF93CDB77E
:10283000DEB782E060E041E00E94BF0782E061E035
:1028400041E00E94BF0782E062E041E00E94BF07D2
:1028500082E063E041E00E94BF0782E060E041E087
:102860000E947A0882E061E041E00E947A0882E0FA
:1028700062E041E00E947A0882E063E041E00E9469
:102880007A0882E064E040E00E94BF0782E065E0F1
:1028900040E00E94BF0782E066E040E00E94BF0780
:1028A00082E067E040E00E94BF0782E064E041E030
:1028B0000E947A0882E065E041E00E947A0882E0A6
:1028C00066E041E00E947A0882E067E041E00E9411
:1028D0007A08CF91DF910895DF93CF93CDB7DEB71C
:1028E00061970FB6F894DEBF0FBECDBF8AEF8F871A
:1028F000198AABC082E0698940E00E947A0884E0CE
:10290000888B97C082E068890E943509882309F086
:102910008DC08989482F50E08889882F90E09C01DC
:1029200024503040CA01880F991F880F991F820FC9
:10293000931FFC01E05EFD4F80818F8782E06889F4
:102940000E9435098823D1F380E090E0A0E2B1E451
:102950008B879C87AD87BE876B857C858D859E85A3
:1029600020E030E04AEF54E40E941F02DC01CB017A
:102970008F839887A987BA876F81788589859A859B
:1029800020E030E040E85FE30E94790388232CF4E4
:1029900081E090E09E838D833FC06F81788589853B
:1029A0009A8520E03FEF4FE757E40E94190318167D
:1029B0004CF56B857C858D859E8520E030E040E27E
:1029C00051E40E941F02DC01CB01BC01CD010E9439
:1029D0004900DC01CB019E838D830FC088EC90E021
:1029E0009C838B838B819C810197F1F79C838B83E4
:1029F0008D819E8101979E838D838D819E8100971D
:102A000069F714C06F81788589859A850E9449008D
:102A1000DC01CB019E838D838D819E819A83898386
:102A200089819A810197F1F79A83898388898F5FD9
:102A3000888B8889883008F465CF82E0698941E015
:102A40000E947A0889898F5F898B8989843008F48C
:102A500051CF8F8561960FB6F894DEBF0FBECDBF04
:102A6000CF91DF910895DF93CF93CDB7DEB70E946A
:102A7000F71380E690E00E94CE130E940B14CF91D2
:102A8000DF910895DF93CF9300D000D0CDB7DEB7AC
:102A90009C838B830E946C14898389818A3F51F1C6
:102AA000898180538A83EB81FC81808191819C01A3
:102AB000220F331FC901880F991F880F991F820F9A
:102AC000931FEB81FC8191838083EB81FC812081CA
:102AD00031818A81882F90E0820F931FEB81FC81E6
:102AE000918380838AE20E94BE12809131028F5FBF
:102AF000809331020F900F900F900F90CF91DF9144
:102B00000895DF93CF93CDB7DEB780913102CF9197
:102B1000DF910895DF93CF930F92CDB7DEB789830E
:102B20008981809331020F90CF91DF910895DF93D7
:102B3000CF93CDB7DEB70E94F71381E790E00E94F4
:102B4000CE130E940B14CF91DF910895DF93CF93A2
:102B5000CDB7DEB70E94F71380E890E00E94CE1355
:102B60000E940B14CF91DF910895DF93CF93CDB7DF
:102B7000DEB70E94F7130E94011480E990E00E94E2
:102B8000CE130E940B14CF91DF910895DF93CF9362
:102B9000CDB7DEB70E94F7130E94011481EA90E0DE
:102BA0000E94CE130E940B14CF91DF910895DF9302
:102BB000CF93CDB7DEB70E94F71382EB90E00E946F
:102BC000CE1380E00E946E0A0E94900ACF91DF919E
:102BD0000895DF93CF93CDB7DEB70E94F71383EC50
:102BE00090E00E94CE1381E00E946E0A0E94900A3B
:102BF000CF91DF910895DF93CF93CDB7DEB72F97B5
:102C00000FB6F894DEBF0FBECDBF8F878F85282FFC
:102C100030E088EE93E0AC01249FC001259F900D29
:102C2000349F900D1124AA2797FDA095BA2FBC01BF
:102C3000CD010E94A903DC01CB018B879C87AD8766
:102C4000BE876B857C858D859E8520E030E04AEFD0
:102C500054E40E941F02DC01CB018F839887A9876F
:102C6000BA876F81788589859A8520E030E040E8D1
:102C70005FE30E94790388232CF481E090E09E8337
:102C80008D833FC06F81788589859A8520E03FEFED
:102C90004FE757E40E94190318164CF56B857C85A5
:102CA0008D859E8520E030E040E251E40E941F02C5
:102CB000DC01CB01BC01CD010E944900DC01CB014C
:102CC0009E838D830FC088EC90E09C838B838B81E7
:102CD0009C810197F1F79C838B838D819E81019765
:102CE0009E838D838D819E81009769F714C06F81CB
:102CF000788589859A850E944900DC01CB019E83F5
:102D00008D838D819E819A83898389819A810197A0
:102D1000F1F79A8389832F960FB6F894DEBF0FBE22
:102D2000CDBFCF91DF910895DF93CF93CDB7DEB7BD
:102D30000E94C4100E9415140E943D0A80ED97E085
:102D40000E94580ACF91DF910895DF93CF930F929D
:102D5000CDB7DEB70E940B14198206C080E20E9434
:102D6000BE1289818F5F898389818430B8F30E9484
:102D70000B140F90CF91DF910895DF93CF930F92B3
:102D8000CDB7DEB789838981882349F40E94F71380
:102D90000E94011484ED90E00E94CE1314C089813A
:102DA000813049F40E94F7130E94011484EE90E0F0
:102DB0000E94CE1308C00E94F7130E94011485EFF1
:102DC00090E00E94CE130F90CF91DF910895DF9392
:102DD000CF930F92CDB7DEB789838981882341F4E1
:102DE0000E94F7130E94011485E091E00E94CE1327
:102DF0000F90CF91DF9108950F931F93DF93CF939F
:102E0000CDB7DEB7C258D0400FB6F894DEBF0FBEC4
:102E1000CDBFFE01E058FF4F83E1808380913202F5
:102E2000282F30E0CF57DF4F39832883C158D04057
:102E3000CF57DF4F88819981C158D04083309105A9
:102E400009F4A2C3CF57DF4FE881F981C158D040C0
:102E5000E430F105ECF4CF57DF4F28813981C158B8
:102E6000D0402130310509F402C1CF57DF4F8881AE
:102E70009981C158D040823091050CF0E7C1CF57FD
:102E8000DF4FE881F981C158D040309701F186C603
:102E9000CF57DF4F28813981C158D04025303105C7
:102EA00009F46EC6CF57DF4F88819981C158D04051
:102EB000853091050CF4A8C4CF57DF4FE881F98124
:102EC000C158D040E630F10509F463C667C6809169
:102ED0001F02823029F40E94331581E080931F0283
:102EE00083E392E00E9442150E948115843009F02C
:102EF00055C680E00E948A1582E080933202FE016E
:102F0000E558FF4F80E090E0AAE7B3E48083918327
:102F1000A283B3838E0109581F4FFE01E558FF4F6E
:102F2000608171818281938120E030E04AEF54E436
:102F30000E941F02DC01CB01F80180839183A283F0
:102F4000B383FE01E958FF4F6081718182819381D3
:102F500020E030E040E85FE30E947903882344F4F6
:102F6000FE01EB58FF4F81E090E09183808364C0C5
:102F7000FE01E958FF4F608171818281938120E0D9
:102F80003FEF4FE757E40E94190318160CF043C0B7
:102F9000FE01E558FF4F608171818281938120E0BD
:102FA00030E040E251E40E941F02DC01CB018E01BF
:102FB0000B581F4FBC01CD010E944900DC01CB0121
:102FC000F801918380831FC0FE01ED58FF4F88EC0C
:102FD00090E091838083FE01ED58FF4F80819181C5
:102FE0000197F1F7FE01ED58FF4F91838083DE01D9
:102FF000AB58BF4FFE01EB58FF4F80819181019785
:1030000011969C938E93FE01EB58FF4F8081918126
:103010000097D1F628C08E010B581F4FFE01E958CA
:10302000FF4F60817181828193810E944900DC01A0
:10303000CB01F80191838083DE01AF58BF4FFE01C1
:10304000EB58FF4F8081918111969C938E93FE01E6
:10305000EF58FF4F808191810197F1F7FE01EF5802
:10306000FF4F9183808382E080931F0297C58091F8
:103070001F02823029F40E94A61581E080931F026E
:1030800085E392E00E9442150E948115843009F088
:1030900085C5FE01E158FF4F108280E00E948A152D
:1030A0008091350290913602F5E1833B9F0771F4E0
:1030B00082E080931F02109232021092340210922A
:1030C0003302FE01E158FF4F81E080831092360207
:1030D00010923502FE01E158FF4F80810E94E716F1
:1030E000FE01E359FF4F80E090E0AAE7B3E480835C
:1030F0009183A283B3838E0107591F4FFE01E359C9
:10310000FF4F608171818281938120E030E04AEF3E
:1031100054E40E941F02DC01CB01F80180839183FB
:10312000A283B383FE01E759FF4F608171818281E1
:10313000938120E030E040E85FE30E947903882338
:1031400044F4FE01E959FF4F81E090E091838083D0
:1031500064C0FE01E759FF4F6081718182819381D4
:1031600020E03FEF4FE757E40E94190318160CF0D8
:1031700043C0FE01E359FF4F6081718182819381D9
:1031800020E030E040E251E40E941F02DC01CB016C
:103190008E0109591F4FBC01CD010E944900DC017D
:1031A000CB01F801918380831FC0FE01EB59FF4FD3
:1031B00088EC90E091838083FE01EB59FF4F808182
:1031C00091810197F1F7FE01EB59FF4F91838083C5
:1031D000DE01A959BF4FFE01E959FF4F808191815E
:1031E000019711969C938E93FE01E959FF4F8081C0
:1031F00091810097D1F627C08E0109591F4FFE011A
:10320000E759FF4F60817181828193810E9449005B
:10321000DC01CB01F80191838083DE01AD59BF4F02
:10322000FE01E959FF4F808191818D939C93FE01AE
:10323000ED59FF4F808191810197F1F7FE01ED5922
:10324000FF4F918380830E94A615A8C480911F021E
:10325000823029F40E94971581E080931F0287E352
:1032600092E00E9442150E948115843009F096C4B4
:1032700080E00E948A1520913702309138028091B7
:103280003302909134022817390709F4BEC0109216
:1032900032021092340210923302FE01E15AFF4FC3
:1032A00080E090E0AAE7B3E480839183A283B383B4
:1032B0008E01055A1F4FFE01E15AFF4F6081718157
:1032C0008281938120E030E04AEF54E40E941F02A3
:1032D000DC01CB01F80180839183A283B383FE01DB
:1032E000E55AFF4F608171818281938120E030E057
:1032F00040E85FE30E947903882344F4FE01E75A23
:10330000FF4F81E090E09183808364C0FE01E55A25
:10331000FF4F608171818281938120E03FEF4FE711
:1033200057E40E94190318160CF043C0FE01E15A3D
:10333000FF4F608171818281938120E030E040E223
:1033400051E40E941F02DC01CB018E01075A1F4F7E
:10335000BC01CD010E944900DC01CB01F801918341
:1033600080831FC0FE01E95AFF4F88EC90E09183F3
:103370008083FE01E95AFF4F808191810197F1F727
:10338000FE01E95AFF4F91838083DE01A75ABF4FA8
:10339000FE01E75AFF4F80819181019711969C931E
:1033A0008E93FE01E75AFF4F808191810097D1F6FD
:1033B00028C08E01075A1F4FFE01E55AFF4F60815A
:1033C0007181828193810E944900DC01CB01F80167
:1033D00091838083DE01AB5ABF4FFE01E75AFF4F56
:1033E0008081918111969C938E93FE01EB5AFF4F41
:1033F000808191810197F1F7FE01EB5AFF4F918394
:10340000808382E080931F02BAC085E080933202FD
:10341000FE01EF5AFF4F80E090E0AAE7B3E480831B
:103420009183A283B3838E01035B1F4FFE01EF5A8A
:10343000FF4F608171818281938120E030E04AEF0B
:1034400054E40E941F02DC01CB01F80180839183C8
:10345000A283B383FE01E35BFF4F608171818281B0
:10346000938120E030E040E85FE30E947903882305
:1034700044F4FE01E55BFF4F81E090E0918380839F
:1034800064C0FE01E35BFF4F6081718182819381A3
:1034900020E03FEF4FE757E40E94190318160CF0A5
:1034A00043C0FE01EF5AFF4F608171818281938199
:1034B00020E030E040E251E40E941F02DC01CB0139
:1034C0008E01055B1F4FBC01CD010E944900DC014C
:1034D000CB01F801918380831FC0FE01E75BFF4FA2
:1034E00088EC90E091838083FE01E75BFF4F808151
:1034F00091810197F1F7FE01E75BFF4F9183808394
:10350000DE01A55BBF4FFE01E55BFF4F808191812E
:10351000019711969C938E93FE01E55BFF4F80818E
:1035200091810097D1F628C08E01055B1F4FFE01E7
:10353000E35BFF4F60817181828193810E9449002A
:10354000DC01CB01F80191838083DE01A95BBF4FD1
:10355000FE01E55BFF4F8081918111969C938E93D4
:10356000FE01E95BFF4F808191810197F1F7FE0138
:10357000E95BFF4F9183808382E080931F0210926A
:103580003802109237020AC380911F02823029F458
:103590000E94B51581E080931F0289E392E00E94AA
:1035A00042150E948115843009F0F8C280E00E9423
:1035B0008A152091390230913A028091330290911C
:1035C00034022817390709F091C010923202109284
:1035D000340210923302FE01ED5BFF4F80E090E079
:1035E000AAE7B3E480839183A283B3838E01015C55
:1035F0001F4FFE01ED5BFF4F6081718182819381DE
:1036000020E030E04AEF54E40E941F02DC01CB01CD
:10361000F80180839183A283B383FE01FF966081CA
:1036200071818281938120E030E040E85FE30E9475
:10363000790388232CF481E090E09EAF8DAF46C0E3
:10364000FE01FF96608171818281938120E03FEFCE
:103650004FE757E40E941903181664F5FE01ED5B6D
:10366000FF4F608171818281938120E030E040E2F0
:1036700051E40E941F02DC01CB01BC01CD010E947C
:103680004900DC01CB019EAF8DAF0FC088EC90E00C
:103690009CAF8BAF8BAD9CAD0197F1F79CAF8BAF1F
:1036A0008DAD9EAD01979EAF8DAF8DAD9EAD009758
:1036B00069F716C0FE01FF96608171818281938156
:1036C0000E944900DC01CB019EAF8DAF8DAD9EAD58
:1036D0009AAF89AF89AD9AAD0197F1F79AAF89AFEB
:1036E00010923E0282E080931F0289C080913E02C8
:1036F0000E94BD1680E090E0AAE7B3E48DAB9EABDC
:10370000AFABB8AF6DA97EA98FA998AD20E030E02E
:103710004AEF54E40E941F02DC01CB0189AB9AAB53
:10372000ABABBCAB69A97AA98BA99CA920E030E01E
:1037300040E85FE30E94790388232CF481E090E065
:1037400098AB8FA73FC069A97AA98BA99CA920E053
:103750003FEF4FE757E40E94190318164CF56DA987
:103760007EA98FA998AD20E030E040E251E40E94AC
:103770001F02DC01CB01BC01CD010E944900DC012C
:10378000CB0198AB8FA70FC088EC90E09EA78DA7C8
:103790008DA59EA50197F1F79EA78DA78FA598A946
:1037A000019798AB8FA78FA598A9009769F714C0C8
:1037B00069A97AA98BA99CA90E944900DC01CB01C7
:1037C00098AB8FA78FA598A99CA78BA78BA59CA525
:1037D0000197F1F79CA78BA70E94B51580913E0237
:1037E0008F5F80933E0280913E02833041F41092BD
:1037F0003E0281E08093320282E080931F021092A9
:103800003A0210923902CAC180911F02823029F413
:103810000E94C61581E080931F028BE392E00E9414
:103820004215FE01E058FF4F8081282F30E0809143
:103830003B0290913C022817390709F084C00E948E
:10384000A51680E00E948A1510923C0210923B025D
:1038500010923D0283E08093320280E090E0AAE77C
:10386000B3E48FA398A7A9A7BAA76FA178A589A544
:103870009AA520E030E04AEF54E40E941F02DC01E8
:10388000CB018BA39CA3ADA3BEA36BA17CA18DA1F7
:103890009EA120E030E040E85FE30E9479038823A6
:1038A0002CF481E090E09AA389A33FC06BA17CA196
:1038B0008DA19EA120E03FEF4FE757E40E9419033E
:1038C00018164CF56FA178A589A59AA520E030E0DF
:1038D00040E251E40E941F02DC01CB01BC01CD019A
:1038E0000E944900DC01CB019AA389A30FC088EC98
:1038F00090E098A38F8F8F8D98A10197F1F798A3EF
:103900008F8F89A19AA101979AA389A389A19AA1CE
:10391000009769F714C06BA17CA18DA19EA10E94A4
:103920004900DC01CB019AA389A389A19AA19E8FAA
:103930008D8F8D8D9E8D0197F1F79E8F8D8F82E0FB
:1039400080931F022BC10E948115843009F026C18B
:1039500080E00E948A1520913B0230913C028091C8
:103960003302909134022817390709F07BC0109276
:103970003D0285E08093320280E090E0AAE7B3E464
:10398000898F9A8FAB8FBC8F698D7A8D8B8D9C8D33
:1039900020E030E04AEF54E40E941F02DC01CB013A
:1039A0008D8B9E8BAF8BB88F6D897E898F89988D1B
:1039B00020E030E040E85FE30E94790388232CF4A4
:1039C00081E090E09C8B8B8B3FC06D897E898F89D5
:1039D000988D20E03FEF4FE757E40E941903181637
:1039E0004CF5698D7A8D8B8D9C8D20E030E040E226
:1039F00051E40E941F02DC01CB01BC01CD010E94F9
:103A00004900DC01CB019C8B8B8B0FC088EC90E0D4
:103A10009A8B898B89899A890197F1F79A8B898B7F
:103A20008B899C8901979C8B8B8B8B899C890097B8
:103A300069F714C06D897E898F89988D0E9449002D
:103A4000DC01CB019C8B8B8B8B899C89988B8F871E
:103A50008F8598890197F1F7988B8F8782E0809303
:103A60001F0289C080913D020E94BD1680E090E057
:103A7000AAE7B3E48B879C87AD87BE876B857C857F
:103A80008D859E8520E030E04AEF54E40E941F02BD
:103A9000DC01CB018F839887A987BA876F817885EE
:103AA00089859A8520E030E040E85FE30E94790351
:103AB00088232CF481E090E09E838D833FC06F814A
:103AC000788589859A8520E03FEF4FE757E40E948B
:103AD000190318164CF56B857C858D859E8520E035
:103AE00030E040E251E40E941F02DC01CB01BC0146
:103AF000CD010E944900DC01CB019E838D830FC064
:103B000088EC90E09C838B838B819C810197F1F7FB
:103B10009C838B838D819E8101979E838D838D8174
:103B20009E81009769F714C06F81788589859A8591
:103B30000E944900DC01CB019E838D838D819E8193
:103B40009A83898389819A810197F1F79A8389837E
:103B50000E94C61580913D028F5F80933D02809147
:103B60003D02833041F410923D0281E080933202A5
:103B700082E080931F0210923C0210923B020EC022
:103B80000E94D71583E00E94FB1586E080933202E5
:103B900005C00E94E91584E080933202CE57DF4FC2
:103BA0000FB6F894DEBF0FBECDBFCF91DF911F914E
:103BB0000F910895DF93CF93CDB7DEB70E9494168F
:103BC0000E94FC16FDCFAA1BBB1B51E107C0AA1F18
:103BD000BB1FA617B70710F0A61BB70B881F991FAE
:103BE0005A95A9F780959095BC01CD0108952F9223
:103BF0003F924F925F926F927F928F929F92AF927D
:103C0000BF92CF92DF92EF92FF920F931F93CF93C9
:103C1000DF93CDB7DEB7CA1BDB0B0FB6F894DEBF60
:103C20000FBECDBF09942A88398848885F846E8486
:103C30007D848C849B84AA84B984C884DF80EE80D0
:103C4000FD800C811B81AA81B981CE0FD11D0FB6D9
:103C5000F894DEBF0FBECDBFED010895F894FFCFFD
:103C600020456E746572204E657720506173732015
:103C70000020436F6E6669726D205061737320007F
:103C80004D61737465722070617373776F72640035
:103C900020456E746572204F6C64205061737320F0
:103CA0000020456E7465722050617373776F726483
:103CB000200020205361666520204F70656E65648A
:103CC0002020002020536166652020436C6F7365BF
:103CD00064202000204669727374206D69737461DA
:103CE0006B652000207365636F6E64206D6973746B
:103CF000616B652000207468697264206D6973745B
:103D0000616B6520002077726F6E6720706173733E
:103D1000776F7264200000000000000000000001C6
:103D20000202030303030404040404040404050559
:103D30000505050505050505050505050505060631
:103D40000606060606060606060606060606060613
:103D50000606060606060606060606060606070701
:103D600007070707070707070707070707070707E3
:103D700007070707070707070707070707070707D3
:103D800007070707070707070707070707070707C3
:103D900007070707070707070707070707070808B1
:103DA0000808080808080808080808080808080893
:103DB0000808080808080808080808080808080883
:103DC0000808080808080808080808080808080873
:103DD0000808080808080808080808080808080863
:103DE0000808080808080808080808080808080853
:103DF0000808080808080808080808080808080843
:103E00000808080808080808080808080808080832
:103E100008080808080808080808080808086402CC
:103E2000373839443435364D3132334E43303D50D6
:00000001FF
